{
  "contractName": "Creditor0",
  "abi": [
    {
      "constant": true,
      "inputs": [],
      "name": "numDebtsOwedToContract",
      "outputs": [
        {
          "name": "",
          "type": "uint256"
        }
      ],
      "payable": false,
      "stateMutability": "view",
      "type": "function"
    },
    {
      "constant": false,
      "inputs": [],
      "name": "claimNextDebt",
      "outputs": [],
      "payable": false,
      "stateMutability": "nonpayable",
      "type": "function"
    },
    {
      "constant": true,
      "inputs": [],
      "name": "debtOwedToContract",
      "outputs": [
        {
          "name": "",
          "type": "bool"
        }
      ],
      "payable": false,
      "stateMutability": "view",
      "type": "function"
    },
    {
      "inputs": [],
      "payable": true,
      "stateMutability": "payable",
      "type": "constructor"
    },
    {
      "payable": true,
      "stateMutability": "payable",
      "type": "fallback"
    },
    {
      "constant": true,
      "inputs": [],
      "name": "thisBalance",
      "outputs": [
        {
          "name": "",
          "type": "uint256"
        }
      ],
      "payable": false,
      "stateMutability": "view",
      "type": "function"
    }
  ],
  "bytecode": "0x606060405273af42e86cc52fc1ceced626621caf63f24175ee106000806101000a81548173ffffffffffffffffffffffffffffffffffffffff021916908373ffffffffffffffffffffffffffffffffffffffff1602179055506102d4806100676000396000f300606060405260043610610062576000357c0100000000000000000000000000000000000000000000000000000000900463ffffffff16806327f3a72a146100645780633bf16d891461008d578063a28602d9146100b6578063bd30395f146100cb575b005b341561006f57600080fd5b6100776100f8565b6040518082815260200191505060405180910390f35b341561009857600080fd5b6100a0610117565b6040518082815260200191505060405180910390f35b34156100c157600080fd5b6100c96101fd565b005b34156100d657600080fd5b6100de610297565b604051808215151515815260200191505060405180910390f35b60003073ffffffffffffffffffffffffffffffffffffffff1631905090565b60008060009054906101000a900473ffffffffffffffffffffffffffffffffffffffff1673ffffffffffffffffffffffffffffffffffffffff166370a08231306000604051602001526040518263ffffffff167c0100000000000000000000000000000000000000000000000000000000028152600401808273ffffffffffffffffffffffffffffffffffffffff1673ffffffffffffffffffffffffffffffffffffffff168152602001915050602060405180830381600087803b15156101dd57600080fd5b6102c65a03f115156101ee57600080fd5b50505060405180519050905090565b6000809054906101000a900473ffffffffffffffffffffffffffffffffffffffff1673ffffffffffffffffffffffffffffffffffffffff1663a28602d96040518163ffffffff167c0100000000000000000000000000000000000000000000000000000000028152600401600060405180830381600087803b151561028157600080fd5b6102c65a03f1151561029257600080fd5b505050565b6000806102a2610117565b119050905600a165627a7a723058205ae0178c66113d8856eba62c0b04df773c4d069bd045c1d0ed76a6ae2cf10ea80029",
  "source": "pragma solidity ^0.4.17;\n\nimport '../PayeeInterface.sol';\n\ncontract Creditor0 is PayeeInterface {\n    function Creditor0() public payable {}\n\n    function () public payable {\n    }\n\n    function thisBalance() public view returns (uint) {\n        return address(this).balance;\n    }\n}\n",
  "sourcePath": "/home/sth/OweTokenSys/DebtTrackingSys/contracts/examples/Creditor0.sol",
  "compiler": {
    "name": "solc",
    "version": "0.4.19+commit.c4cbbb05.Emscripten.clang"
  },
  "schemaVersion": "1.0.1",
  "updatedAt": "2018-04-28T17:01:21.882Z"
}