{
  "contractName": "DebtTrackingToken",
  "abi": [
    {
      "constant": true,
      "inputs": [],
      "name": "name",
      "outputs": [
        {
          "name": "",
          "type": "string"
        }
      ],
      "payable": false,
      "stateMutability": "view",
      "type": "function"
    },
    {
      "constant": true,
      "inputs": [],
      "name": "totalSupply",
      "outputs": [
        {
          "name": "",
          "type": "uint256"
        }
      ],
      "payable": false,
      "stateMutability": "view",
      "type": "function"
    },
    {
      "constant": true,
      "inputs": [
        {
          "name": "_owner",
          "type": "address"
        },
        {
          "name": "_index",
          "type": "uint256"
        }
      ],
      "name": "tokenOfOwnerByIndex",
      "outputs": [
        {
          "name": "",
          "type": "uint256"
        }
      ],
      "payable": false,
      "stateMutability": "view",
      "type": "function"
    },
    {
      "constant": true,
      "inputs": [
        {
          "name": "_tokenId",
          "type": "uint256"
        }
      ],
      "name": "exists",
      "outputs": [
        {
          "name": "",
          "type": "bool"
        }
      ],
      "payable": false,
      "stateMutability": "view",
      "type": "function"
    },
    {
      "constant": true,
      "inputs": [
        {
          "name": "_index",
          "type": "uint256"
        }
      ],
      "name": "tokenByIndex",
      "outputs": [
        {
          "name": "",
          "type": "uint256"
        }
      ],
      "payable": false,
      "stateMutability": "view",
      "type": "function"
    },
    {
      "constant": true,
      "inputs": [
        {
          "name": "_tokenId",
          "type": "uint256"
        }
      ],
      "name": "ownerOf",
      "outputs": [
        {
          "name": "",
          "type": "address"
        }
      ],
      "payable": false,
      "stateMutability": "view",
      "type": "function"
    },
    {
      "constant": true,
      "inputs": [
        {
          "name": "_owner",
          "type": "address"
        }
      ],
      "name": "balanceOf",
      "outputs": [
        {
          "name": "",
          "type": "uint256"
        }
      ],
      "payable": false,
      "stateMutability": "view",
      "type": "function"
    },
    {
      "constant": true,
      "inputs": [
        {
          "name": "",
          "type": "uint256"
        }
      ],
      "name": "debts",
      "outputs": [
        {
          "name": "creditor",
          "type": "address"
        },
        {
          "name": "debtor",
          "type": "address"
        },
        {
          "name": "amount",
          "type": "uint256"
        }
      ],
      "payable": false,
      "stateMutability": "view",
      "type": "function"
    },
    {
      "constant": true,
      "inputs": [],
      "name": "symbol",
      "outputs": [
        {
          "name": "",
          "type": "string"
        }
      ],
      "payable": false,
      "stateMutability": "view",
      "type": "function"
    },
    {
      "constant": true,
      "inputs": [
        {
          "name": "_tokenId",
          "type": "uint256"
        }
      ],
      "name": "tokenURI",
      "outputs": [
        {
          "name": "",
          "type": "string"
        }
      ],
      "payable": false,
      "stateMutability": "view",
      "type": "function"
    },
    {
      "inputs": [],
      "payable": true,
      "stateMutability": "payable",
      "type": "constructor"
    },
    {
      "anonymous": false,
      "inputs": [
        {
          "indexed": true,
          "name": "_from",
          "type": "address"
        },
        {
          "indexed": true,
          "name": "_to",
          "type": "address"
        },
        {
          "indexed": false,
          "name": "_tokenId",
          "type": "uint256"
        }
      ],
      "name": "Transfer",
      "type": "event"
    },
    {
      "anonymous": false,
      "inputs": [
        {
          "indexed": true,
          "name": "_owner",
          "type": "address"
        },
        {
          "indexed": true,
          "name": "_approved",
          "type": "address"
        },
        {
          "indexed": false,
          "name": "_tokenId",
          "type": "uint256"
        }
      ],
      "name": "Approval",
      "type": "event"
    },
    {
      "anonymous": false,
      "inputs": [
        {
          "indexed": true,
          "name": "_owner",
          "type": "address"
        },
        {
          "indexed": true,
          "name": "_operator",
          "type": "address"
        },
        {
          "indexed": false,
          "name": "_approved",
          "type": "bool"
        }
      ],
      "name": "ApprovalForAll",
      "type": "event"
    },
    {
      "constant": false,
      "inputs": [
        {
          "name": "_creditor",
          "type": "address"
        },
        {
          "name": "_amount",
          "type": "uint256"
        }
      ],
      "name": "announceDebt",
      "outputs": [],
      "payable": false,
      "stateMutability": "nonpayable",
      "type": "function"
    },
    {
      "constant": false,
      "inputs": [
        {
          "name": "_creditor",
          "type": "address"
        }
      ],
      "name": "clearDebt",
      "outputs": [],
      "payable": false,
      "stateMutability": "nonpayable",
      "type": "function"
    },
    {
      "constant": false,
      "inputs": [
        {
          "name": "_creditor",
          "type": "address"
        }
      ],
      "name": "claimNextDebt",
      "outputs": [],
      "payable": false,
      "stateMutability": "nonpayable",
      "type": "function"
    },
    {
      "constant": false,
      "inputs": [],
      "name": "claimNextDebt",
      "outputs": [],
      "payable": false,
      "stateMutability": "nonpayable",
      "type": "function"
    },
    {
      "constant": false,
      "inputs": [
        {
          "name": "",
          "type": "address"
        },
        {
          "name": "",
          "type": "address"
        },
        {
          "name": "",
          "type": "uint256"
        },
        {
          "name": "",
          "type": "bytes"
        }
      ],
      "name": "safeTransferFrom",
      "outputs": [],
      "payable": false,
      "stateMutability": "nonpayable",
      "type": "function"
    },
    {
      "constant": false,
      "inputs": [
        {
          "name": "",
          "type": "address"
        },
        {
          "name": "",
          "type": "address"
        },
        {
          "name": "",
          "type": "uint256"
        }
      ],
      "name": "safeTransferFrom",
      "outputs": [],
      "payable": false,
      "stateMutability": "nonpayable",
      "type": "function"
    },
    {
      "constant": false,
      "inputs": [
        {
          "name": "",
          "type": "address"
        },
        {
          "name": "",
          "type": "uint256"
        }
      ],
      "name": "approve",
      "outputs": [],
      "payable": false,
      "stateMutability": "nonpayable",
      "type": "function"
    },
    {
      "constant": true,
      "inputs": [
        {
          "name": "",
          "type": "uint256"
        }
      ],
      "name": "getApproved",
      "outputs": [
        {
          "name": "",
          "type": "address"
        }
      ],
      "payable": false,
      "stateMutability": "view",
      "type": "function"
    },
    {
      "constant": false,
      "inputs": [
        {
          "name": "",
          "type": "address"
        },
        {
          "name": "",
          "type": "bool"
        }
      ],
      "name": "setApprovalForAll",
      "outputs": [],
      "payable": false,
      "stateMutability": "nonpayable",
      "type": "function"
    },
    {
      "constant": true,
      "inputs": [
        {
          "name": "",
          "type": "address"
        },
        {
          "name": "",
          "type": "address"
        }
      ],
      "name": "isApprovedForAll",
      "outputs": [
        {
          "name": "",
          "type": "bool"
        }
      ],
      "payable": false,
      "stateMutability": "view",
      "type": "function"
    },
    {
      "constant": false,
      "inputs": [
        {
          "name": "",
          "type": "address"
        },
        {
          "name": "",
          "type": "address"
        },
        {
          "name": "",
          "type": "uint256"
        }
      ],
      "name": "transferFrom",
      "outputs": [],
      "payable": false,
      "stateMutability": "nonpayable",
      "type": "function"
    }
  ],
  "bytecode": "0x60606040526040805190810160405280600981526020017f4f776520546f6b656e0000000000000000000000000000000000000000000000815250600b90805190602001906200005192919062000218565b506040805190810160405280600381526020017f4f57450000000000000000000000000000000000000000000000000000000000815250600c90805190602001906200009f92919062000218565b50600b8054600181600116156101000203166002900480601f0160208091040260200160405190810160405280929190818152602001828054600181600116156101000203166002900480156200013a5780601f106200010e576101008083540402835291602001916200013a565b820191906000526020600020905b8154815290600101906020018083116200011c57829003601f168201915b5050505050600c8054600181600116156101000203166002900480601f016020809104026020016040519081016040528092919081815260200182805460018160011615610100020316600290048015620001d95780601f10620001ad57610100808354040283529160200191620001d9565b820191906000526020600020905b815481529060010190602001808311620001bb57829003601f168201915b50505050508160049080519060200190620001f692919062000218565b5080600590805190602001906200020f92919062000218565b505050620002c7565b828054600181600116156101000203166002900490600052602060002090601f016020900481019282601f106200025b57805160ff19168380011785556200028c565b828001600101855582156200028c579182015b828111156200028b5782518255916020019190600101906200026e565b5b5090506200029b91906200029f565b5090565b620002c491905b80821115620002c0576000816000905550600101620002a6565b5090565b90565b611c6b80620002d76000396000f30060606040526004361061011d576000357c0100000000000000000000000000000000000000000000000000000000900463ffffffff16806306fdde0314610122578063081812fc146101b0578063095ea7b31461021357806318160ddd1461025557806323b872dd1461027e5780632f745c59146102df5780633f84b6341461033557806342842e0e14610377578063498de65c146103d85780634f558e79146104115780634f6ccce71461044c5780636352211e1461048357806370a08231146104e657806385af9b3f1461053357806395d89b41146105d0578063a22cb4651461065e578063a28602d9146106a2578063aacd4a98146106b7578063b88d4fde146106f0578063c87b56dd14610794578063e985e9c514610830575b600080fd5b341561012d57600080fd5b6101356108a0565b6040518080602001828103825283818151815260200191508051906020019080838360005b8381101561017557808201518184015260208101905061015a565b50505050905090810190601f1680156101a25780820380516001836020036101000a031916815260200191505b509250505060405180910390f35b34156101bb57600080fd5b6101d16004808035906020019091905050610948565b604051808273ffffffffffffffffffffffffffffffffffffffff1673ffffffffffffffffffffffffffffffffffffffff16815260200191505060405180910390f35b341561021e57600080fd5b610253600480803573ffffffffffffffffffffffffffffffffffffffff1690602001909190803590602001909190505061094f565b005b341561026057600080fd5b610268610954565b6040518082815260200191505060405180910390f35b341561028957600080fd5b6102dd600480803573ffffffffffffffffffffffffffffffffffffffff1690602001909190803573ffffffffffffffffffffffffffffffffffffffff16906020019091908035906020019091905050610961565b005b34156102ea57600080fd5b61031f600480803573ffffffffffffffffffffffffffffffffffffffff16906020019091908035906020019091905050610966565b6040518082815260200191505060405180910390f35b341561034057600080fd5b610375600480803573ffffffffffffffffffffffffffffffffffffffff169060200190919080359060200190919050506109de565b005b341561038257600080fd5b6103d6600480803573ffffffffffffffffffffffffffffffffffffffff1690602001909190803573ffffffffffffffffffffffffffffffffffffffff16906020019091908035906020019091905050610b01565b005b34156103e357600080fd5b61040f600480803573ffffffffffffffffffffffffffffffffffffffff16906020019091905050610b06565b005b341561041c57600080fd5b6104326004808035906020019091905050610c09565b604051808215151515815260200191505060405180910390f35b341561045757600080fd5b61046d6004808035906020019091905050610c7a565b6040518082815260200191505060405180910390f35b341561048e57600080fd5b6104a46004808035906020019091905050610cb3565b604051808273ffffffffffffffffffffffffffffffffffffffff1673ffffffffffffffffffffffffffffffffffffffff16815260200191505060405180910390f35b34156104f157600080fd5b61051d600480803573ffffffffffffffffffffffffffffffffffffffff16906020019091905050610d30565b6040518082815260200191505060405180910390f35b341561053e57600080fd5b6105546004808035906020019091905050610db4565b604051808473ffffffffffffffffffffffffffffffffffffffff1673ffffffffffffffffffffffffffffffffffffffff1681526020018373ffffffffffffffffffffffffffffffffffffffff1673ffffffffffffffffffffffffffffffffffffffff168152602001828152602001935050505060405180910390f35b34156105db57600080fd5b6105e3610e1e565b6040518080602001828103825283818151815260200191508051906020019080838360005b83811015610623578082015181840152602081019050610608565b50505050905090810190601f1680156106505780820380516001836020036101000a031916815260200191505b509250505060405180910390f35b341561066957600080fd5b6106a0600480803573ffffffffffffffffffffffffffffffffffffffff169060200190919080351515906020019091905050610ec6565b005b34156106ad57600080fd5b6106b5610ecb565b005b34156106c257600080fd5b6106ee600480803573ffffffffffffffffffffffffffffffffffffffff16906020019091905050610ed6565b005b34156106fb57600080fd5b610792600480803573ffffffffffffffffffffffffffffffffffffffff1690602001909190803573ffffffffffffffffffffffffffffffffffffffff1690602001909190803590602001909190803590602001908201803590602001908080601f01602080910402602001604051908101604052809392919081815260200183838082843782019150505050505091905050610fee565b005b341561079f57600080fd5b6107b56004808035906020019091905050610ff3565b6040518080602001828103825283818151815260200191508051906020019080838360005b838110156107f55780820151818401526020810190506107da565b50505050905090810190601f1680156108225780820380516001836020036101000a031916815260200191505b509250505060405180910390f35b341561083b57600080fd5b610886600480803573ffffffffffffffffffffffffffffffffffffffff1690602001909190803573ffffffffffffffffffffffffffffffffffffffff169060200190919050506110c2565b604051808215151515815260200191505060405180910390f35b6108a8611b66565b60048054600181600116156101000203166002900480601f01602080910402602001604051908101604052809291908181526020018280546001816001161561010002031660029004801561093e5780601f106109135761010080835404028352916020019161093e565b820191906000526020600020905b81548152906001019060200180831161092157829003601f168201915b5050505050905090565b6000806000fd5b600080fd5b6000600880549050905090565b600080fd5b600061097183610d30565b8210151561097e57600080fd5b600660008473ffffffffffffffffffffffffffffffffffffffff1673ffffffffffffffffffffffffffffffffffffffff168152602001908152602001600020828154811015156109ca57fe5b906000526020600020900154905092915050565b60006109ea83336110c9565b90506109f581610c09565b1515610a0657610a058382611194565b5b6060604051908101604052808473ffffffffffffffffffffffffffffffffffffffff1681526020013373ffffffffffffffffffffffffffffffffffffffff16815260200183815250600d600083815260200190815260200160002060008201518160000160006101000a81548173ffffffffffffffffffffffffffffffffffffffff021916908373ffffffffffffffffffffffffffffffffffffffff16021790555060208201518160010160006101000a81548173ffffffffffffffffffffffffffffffffffffffff021916908373ffffffffffffffffffffffffffffffffffffffff16021790555060408201518160020155905050505050565b600080fd5b6000610b1282336110c9565b3373ffffffffffffffffffffffffffffffffffffffff16600d600083815260200190815260200160002060010160009054906101000a900473ffffffffffffffffffffffffffffffffffffffff1673ffffffffffffffffffffffffffffffffffffffff16141515610b8257600080fd5b610b8c83336110c9565b9150610b9883836111e8565b600d6000838152602001908152602001600020600080820160006101000a81549073ffffffffffffffffffffffffffffffffffffffff02191690556001820160006101000a81549073ffffffffffffffffffffffffffffffffffffffff021916905560028201600090555050505050565b60008060008084815260200190815260200160002060009054906101000a900473ffffffffffffffffffffffffffffffffffffffff169050600073ffffffffffffffffffffffffffffffffffffffff168173ffffffffffffffffffffffffffffffffffffffff161415915050919050565b6000610c84610954565b82101515610c9157600080fd5b600882815481101515610ca057fe5b9060005260206000209001549050919050565b60008060008084815260200190815260200160002060009054906101000a900473ffffffffffffffffffffffffffffffffffffffff169050600073ffffffffffffffffffffffffffffffffffffffff168173ffffffffffffffffffffffffffffffffffffffff1614151515610d2757600080fd5b80915050919050565b60008073ffffffffffffffffffffffffffffffffffffffff168273ffffffffffffffffffffffffffffffffffffffff1614151515610d6d57600080fd5b600260008373ffffffffffffffffffffffffffffffffffffffff1673ffffffffffffffffffffffffffffffffffffffff168152602001908152602001600020549050919050565b600d6020528060005260406000206000915090508060000160009054906101000a900473ffffffffffffffffffffffffffffffffffffffff16908060010160009054906101000a900473ffffffffffffffffffffffffffffffffffffffff16908060020154905083565b610e26611b66565b60058054600181600116156101000203166002900480601f016020809104026020016040519081016040528092919081815260200182805460018160011615610100020316600290048015610ebc5780601f10610e9157610100808354040283529160200191610ebc565b820191906000526020600020905b815481529060010190602001808311610e9f57829003601f168201915b5050505050905090565b600080fd5b610ed433610ed6565b565b600080600080610ee585610d30565b111515610ef157600080fd5b610efc846000610966565b9250600d600084815260200190815260200160002060010160009054906101000a900473ffffffffffffffffffffffffffffffffffffffff1691508190508073ffffffffffffffffffffffffffffffffffffffff166351cff8d9856040518263ffffffff167c0100000000000000000000000000000000000000000000000000000000028152600401808273ffffffffffffffffffffffffffffffffffffffff1673ffffffffffffffffffffffffffffffffffffffff168152602001915050600060405180830381600087803b1515610fd457600080fd5b6102c65a03f11515610fe557600080fd5b50505050505050565b600080fd5b610ffb611b66565b61100482610c09565b151561100f57600080fd5b600a60008381526020019081526020016000208054600181600116156101000203166002900480601f0160208091040260200160405190810160405280929190818152602001828054600181600116156101000203166002900480156110b65780601f1061108b576101008083540402835291602001916110b6565b820191906000526020600020905b81548152906001019060200180831161109957829003601f168201915b50505050509050919050565b6000806000fd5b600060028383600060405160200152604051808373ffffffffffffffffffffffffffffffffffffffff1673ffffffffffffffffffffffffffffffffffffffff166c010000000000000000000000000281526014018273ffffffffffffffffffffffffffffffffffffffff1673ffffffffffffffffffffffffffffffffffffffff166c010000000000000000000000000281526014019250505060206040518083038160008661646e5a03f1151561117f57600080fd5b50506040518051905060019004905092915050565b61119e8282611323565b6008805490506009600083815260200190815260200160002081905550600880548060010182816111cf9190611b7a565b9160005260206000209001600083909190915055505050565b60008060006111f785856113d3565b6000600a600086815260200190815260200160002080546001816001161561010002031660029004905014151561124857600a600085815260200190815260200160002060006112479190611ba6565b5b60096000858152602001908152602001600020549250611277600160088054905061145190919063ffffffff16565b915060088281548110151561128857fe5b9060005260206000209001549050806008848154811015156112a657fe5b90600052602060002090018190555060006008838154811015156112c657fe5b90600052602060002090018190555060088054809190600190036112ea9190611bee565b50600060096000868152602001908152602001600020819055508260096000838152602001908152602001600020819055505050505050565b600073ffffffffffffffffffffffffffffffffffffffff168273ffffffffffffffffffffffffffffffffffffffff161415151561135f57600080fd5b611369828261146a565b8173ffffffffffffffffffffffffffffffffffffffff16600073ffffffffffffffffffffffffffffffffffffffff167fddf252ad1be2c89b69c2b068fc378daa952ba7f163c4a11628f55a4df523b3ef836040518082815260200191505060405180910390a35050565b6113dd828261153e565b6113e782826116a7565b600073ffffffffffffffffffffffffffffffffffffffff168273ffffffffffffffffffffffffffffffffffffffff167fddf252ad1be2c89b69c2b068fc378daa952ba7f163c4a11628f55a4df523b3ef836040518082815260200191505060405180910390a35050565b600082821115151561145f57fe5b818303905092915050565b600061147683836118c2565b600660008473ffffffffffffffffffffffffffffffffffffffff1673ffffffffffffffffffffffffffffffffffffffff168152602001908152602001600020805490509050600660008473ffffffffffffffffffffffffffffffffffffffff1673ffffffffffffffffffffffffffffffffffffffff168152602001908152602001600020805480600101828161150c9190611b7a565b916000526020600020900160008490919091505550806007600084815260200190815260200160002081905550505050565b8173ffffffffffffffffffffffffffffffffffffffff1661155e82610cb3565b73ffffffffffffffffffffffffffffffffffffffff1614151561158057600080fd5b600073ffffffffffffffffffffffffffffffffffffffff166001600083815260200190815260200160002060009054906101000a900473ffffffffffffffffffffffffffffffffffffffff1673ffffffffffffffffffffffffffffffffffffffff161415156116a35760006001600083815260200190815260200160002060006101000a81548173ffffffffffffffffffffffffffffffffffffffff021916908373ffffffffffffffffffffffffffffffffffffffff160217905550600073ffffffffffffffffffffffffffffffffffffffff168273ffffffffffffffffffffffffffffffffffffffff167f8c5be1e5ebec7d5bd14f71427d1e84f3dd0314c0f7b2291e5b200ac8c7c3b925836040518082815260200191505060405180910390a35b5050565b60008060006116b68585611a1a565b600760008581526020019081526020016000205492506117226001600660008873ffffffffffffffffffffffffffffffffffffffff1673ffffffffffffffffffffffffffffffffffffffff1681526020019081526020016000208054905061145190919063ffffffff16565b9150600660008673ffffffffffffffffffffffffffffffffffffffff1673ffffffffffffffffffffffffffffffffffffffff1681526020019081526020016000208281548110151561177057fe5b906000526020600020900154905080600660008773ffffffffffffffffffffffffffffffffffffffff1673ffffffffffffffffffffffffffffffffffffffff168152602001908152602001600020848154811015156117cb57fe5b9060005260206000209001819055506000600660008773ffffffffffffffffffffffffffffffffffffffff1673ffffffffffffffffffffffffffffffffffffffff1681526020019081526020016000208381548110151561182857fe5b906000526020600020900181905550600660008673ffffffffffffffffffffffffffffffffffffffff1673ffffffffffffffffffffffffffffffffffffffff1681526020019081526020016000208054809190600190036118899190611bee565b50600060076000868152602001908152602001600020819055508260076000838152602001908152602001600020819055505050505050565b600073ffffffffffffffffffffffffffffffffffffffff1660008083815260200190815260200160002060009054906101000a900473ffffffffffffffffffffffffffffffffffffffff1673ffffffffffffffffffffffffffffffffffffffff1614151561192f57600080fd5b8160008083815260200190815260200160002060006101000a81548173ffffffffffffffffffffffffffffffffffffffff021916908373ffffffffffffffffffffffffffffffffffffffff1602179055506119d36001600260008573ffffffffffffffffffffffffffffffffffffffff1673ffffffffffffffffffffffffffffffffffffffff16815260200190815260200160002054611b4890919063ffffffff16565b600260008473ffffffffffffffffffffffffffffffffffffffff1673ffffffffffffffffffffffffffffffffffffffff168152602001908152602001600020819055505050565b8173ffffffffffffffffffffffffffffffffffffffff16611a3a82610cb3565b73ffffffffffffffffffffffffffffffffffffffff16141515611a5c57600080fd5b611aaf6001600260008573ffffffffffffffffffffffffffffffffffffffff1673ffffffffffffffffffffffffffffffffffffffff1681526020019081526020016000205461145190919063ffffffff16565b600260008473ffffffffffffffffffffffffffffffffffffffff1673ffffffffffffffffffffffffffffffffffffffff16815260200190815260200160002081905550600080600083815260200190815260200160002060006101000a81548173ffffffffffffffffffffffffffffffffffffffff021916908373ffffffffffffffffffffffffffffffffffffffff1602179055505050565b6000808284019050838110151515611b5c57fe5b8091505092915050565b602060405190810160405280600081525090565b815481835581811511611ba157818360005260206000209182019101611ba09190611c1a565b5b505050565b50805460018160011615610100020316600290046000825580601f10611bcc5750611beb565b601f016020900490600052602060002090810190611bea9190611c1a565b5b50565b815481835581811511611c1557818360005260206000209182019101611c149190611c1a565b5b505050565b611c3c91905b80821115611c38576000816000905550600101611c20565b5090565b905600a165627a7a7230582076e119a17f8e1eea0f504c9758e63d222e3c1083f75bca4c65804c60942c99ae0029",
  "source": "pragma solidity ^0.4.17;\n\nimport './PayerInterface.sol';\nimport '../node_modules/zeppelin-solidity/contracts/token/ERC721/ERC721Token.sol';\n\ncontract DebtTrackingToken is ERC721Token {\n    string private NAME = \"Owe Token\";\n    string private SYMBOL = \"OWE\";\n    mapping(uint => Debt) public debts;\n\n    struct Debt {\n        address creditor;\n        address debtor;\n        uint amount;\n    }\n\n    modifier onlyCreditor(uint debtId) {\n        require(debts[debtId].creditor == msg.sender);\n        _;\n    }\n\n    modifier onlyDebtor(uint debtId) {\n        require(debts[debtId].debtor == msg.sender);\n        _;\n    }\n\n    // Contstructor\n    function DebtTrackingToken() public payable ERC721Token(NAME, SYMBOL) { }\n\n    // Public Methods\n    function announceDebt(address _creditor, uint _amount) public {\n        uint debtId = getDebtId(_creditor, msg.sender);\n        if (!exists(debtId)) {\n            super._mint(_creditor, debtId);\n        }\n        debts[debtId] = Debt(_creditor, msg.sender, _amount);\n    }\n\n    function clearDebt(address _creditor)\n        public\n        onlyDebtor(getDebtId(_creditor, msg.sender))\n    {\n        uint debtId = getDebtId(_creditor, msg.sender);\n        super._burn(_creditor, debtId);\n        delete debts[debtId];\n        // event\n    }\n\n    function claimNextDebt() public {\n        claimNextDebt(msg.sender);\n    }\n\n    function claimNextDebt(address _creditor) public {\n        require(balanceOf(_creditor) > 0);\n        uint debtId = tokenOfOwnerByIndex(_creditor, 0);\n        address debtorAddr = debts[debtId].debtor;\n        PayerInterface debtor = PayerInterface(debtorAddr);\n        debtor.withdraw(_creditor);\n    }\n\n    // Private Methods\n    function getDebtId(address _creditor, address _debtor) private pure returns (uint) {\n        return uint(sha256(_creditor, _debtor));\n    }\n\n    // Unsupported Functionality\n    // These functions all revert. We don't want allow this functionality\n    function safeTransferFrom(address, address, uint256) public  { revert(); }\n    function safeTransferFrom(address, address, uint256, bytes) public { revert(); }\n    function approve(address, uint256) public  { revert(); }\n    function getApproved(uint256) public view returns (address)  { revert(); }\n    function setApprovalForAll(address, bool) public  { revert(); }\n    function isApprovedForAll(address, address) public view returns (bool)  { revert(); }\n    function transferFrom(address, address, uint256) public  { revert(); }\n}\n",
  "sourcePath": "/home/sth/OweTokenSys/DebtTrackingSys/contracts/DebtTrackingToken.sol",
  "compiler": {
    "name": "solc",
    "version": "0.4.19+commit.c4cbbb05.Emscripten.clang"
  },
  "schemaVersion": "1.0.1",
  "updatedAt": "2018-04-28T17:01:21.878Z"
}