{
  "contractName": "OweTokenCreditor",
  "abi": [
    {
      "constant": true,
      "inputs": [],
      "name": "numDebtsOwedToContract",
      "outputs": [
        {
          "name": "",
          "type": "uint256"
        }
      ],
      "payable": false,
      "stateMutability": "view",
      "type": "function"
    },
    {
      "constant": true,
      "inputs": [],
      "name": "debtOwedToContract",
      "outputs": [
        {
          "name": "",
          "type": "bool"
        }
      ],
      "payable": false,
      "stateMutability": "view",
      "type": "function"
    },
    {
      "constant": false,
      "inputs": [],
      "name": "claimNextDebt",
      "outputs": [],
      "payable": false,
      "stateMutability": "nonpayable",
      "type": "function"
    }
  ],
  "bytecode": "0x606060405273af42e86cc52fc1ceced626621caf63f24175ee106000806101000a81548173ffffffffffffffffffffffffffffffffffffffff021916908373ffffffffffffffffffffffffffffffffffffffff160217905550341561006357600080fd5b610284806100726000396000f300606060405260043610610057576000357c0100000000000000000000000000000000000000000000000000000000900463ffffffff1680633bf16d891461005c578063a28602d914610085578063bd30395f1461009a575b600080fd5b341561006757600080fd5b61006f6100c7565b6040518082815260200191505060405180910390f35b341561009057600080fd5b6100986101ad565b005b34156100a557600080fd5b6100ad610247565b604051808215151515815260200191505060405180910390f35b60008060009054906101000a900473ffffffffffffffffffffffffffffffffffffffff1673ffffffffffffffffffffffffffffffffffffffff166370a08231306000604051602001526040518263ffffffff167c0100000000000000000000000000000000000000000000000000000000028152600401808273ffffffffffffffffffffffffffffffffffffffff1673ffffffffffffffffffffffffffffffffffffffff168152602001915050602060405180830381600087803b151561018d57600080fd5b6102c65a03f1151561019e57600080fd5b50505060405180519050905090565b6000809054906101000a900473ffffffffffffffffffffffffffffffffffffffff1673ffffffffffffffffffffffffffffffffffffffff1663a28602d96040518163ffffffff167c0100000000000000000000000000000000000000000000000000000000028152600401600060405180830381600087803b151561023157600080fd5b6102c65a03f1151561024257600080fd5b505050565b6000806102526100c7565b119050905600a165627a7a7230582030ba7a17118b8f17da1ea1a490e01e53422eca885b222cf0476ab05bf0ea47cc0029",
  "source": "pragma solidity ^0.4.17;\n\nimport './OweToken.sol';\n\ncontract OweTokenCreditor {\n    OweToken private oweToken = OweToken(\n        0xAF42E86Cc52fC1CeCed626621CAf63f24175EE10\n    );\n\n    function numDebtsOwedToContract() public view returns (uint) {\n        return oweToken.balanceOf(this);\n    }\n\n    function debtOwedToContract() public view returns (bool) {\n        return numDebtsOwedToContract() > 0;\n    }\n\n    function claimNextDebt() public {\n        oweToken.claimNextDebt();\n    }\n}\n",
  "sourcePath": "/home/sth/OweTokenSys/OweTokenActors/contracts/OweTokenCreditor.sol",
  "compiler": {
    "name": "solc",
    "version": "0.4.19+commit.c4cbbb05.Emscripten.clang"
  },
  "schemaVersion": "1.0.1",
  "updatedAt": "2018-04-23T22:14:08.402Z"
}