{
  "contractName": "OweTokenDebtor",
  "abi": [
    {
      "constant": true,
      "inputs": [
        {
          "name": "",
          "type": "address"
        }
      ],
      "name": "balances",
      "outputs": [
        {
          "name": "",
          "type": "uint256"
        }
      ],
      "payable": false,
      "stateMutability": "view",
      "type": "function"
    },
    {
      "constant": false,
      "inputs": [],
      "name": "withdraw",
      "outputs": [],
      "payable": false,
      "stateMutability": "nonpayable",
      "type": "function"
    },
    {
      "constant": false,
      "inputs": [
        {
          "name": "_creditor",
          "type": "address"
        }
      ],
      "name": "withdraw",
      "outputs": [],
      "payable": false,
      "stateMutability": "nonpayable",
      "type": "function"
    }
  ],
  "bytecode": "0x606060405273af42e86cc52fc1ceced626621caf63f24175ee106000806101000a81548173ffffffffffffffffffffffffffffffffffffffff021916908373ffffffffffffffffffffffffffffffffffffffff160217905550341561006357600080fd5b610332806100726000396000f300606060405260043610610057576000357c0100000000000000000000000000000000000000000000000000000000900463ffffffff16806327e235e31461005c5780633ccfd60b146100a957806351cff8d9146100be575b600080fd5b341561006757600080fd5b610093600480803573ffffffffffffffffffffffffffffffffffffffff169060200190919050506100f7565b6040518082815260200191505060405180910390f35b34156100b457600080fd5b6100bc61010f565b005b34156100c957600080fd5b6100f5600480803573ffffffffffffffffffffffffffffffffffffffff1690602001909190505061011a565b005b60016020528060005260406000206000915090505481565b6101183361011a565b565b6000816000600160008373ffffffffffffffffffffffffffffffffffffffff1673ffffffffffffffffffffffffffffffffffffffff1681526020019081526020016000205411151561016b57600080fd5b600160008473ffffffffffffffffffffffffffffffffffffffff1673ffffffffffffffffffffffffffffffffffffffff1681526020019081526020016000205491506000600160008573ffffffffffffffffffffffffffffffffffffffff1673ffffffffffffffffffffffffffffffffffffffff168152602001908152602001600020819055508273ffffffffffffffffffffffffffffffffffffffff166108fc839081150290604051600060405180830381858888f19350505050151561023257600080fd5b6000809054906101000a900473ffffffffffffffffffffffffffffffffffffffff1673ffffffffffffffffffffffffffffffffffffffff1663498de65c846040518263ffffffff167c0100000000000000000000000000000000000000000000000000000000028152600401808273ffffffffffffffffffffffffffffffffffffffff1673ffffffffffffffffffffffffffffffffffffffff168152602001915050600060405180830381600087803b15156102ed57600080fd5b6102c65a03f115156102fe57600080fd5b5050505050505600a165627a7a72305820cb0dcb7461f7e9c041663e7140caf65753ac6345d889087fdf48e887dac0079c0029",
  "source": "pragma solidity ^0.4.17;\n\nimport '../../OweToken/contracts/OweToken.sol';\n\ncontract OweTokenDebtor {\n    OweToken oweToken = OweToken(\n        0xAF42E86Cc52fC1CeCed626621CAf63f24175EE10\n    );\n\n    mapping(address => uint) public balances;\n\n    modifier hasBalance(address _creditor) { require(balances[_creditor] > 0); _; }\n\n    function withdraw() public {\n        withdraw(msg.sender);\n    }\n\n    function withdraw(address _creditor) hasBalance(_creditor) public {\n        uint balance = balances[_creditor];\n        balances[_creditor] = 0;\n        _creditor.transfer(balance);\n        oweToken.clearDebt(_creditor);\n    }\n\n    function addToBalance(address _creditor, uint _addBalance) internal {\n        balances[_creditor] = safeAdd(balances[_creditor], _addBalance);\n        oweToken.announceDebt(_creditor, balances[_creditor]);\n    }\n\n    function setBalance(address _creditor, uint _newBalance) internal {\n        balances[_creditor] = _newBalance;\n        oweToken.announceDebt(_creditor, balances[_creditor]);\n    }\n\n    function safeAdd(uint a, uint b) private pure returns (uint) {\n        uint c = a + b;\n        require(c >= a + b);\n        return c;\n    }\n}\n",
  "sourcePath": "/home/sth/OweTokenSys/OweTokenActors/contracts/OweTokenDebtor.sol",
  "compiler": {
    "name": "solc",
    "version": "0.4.19+commit.c4cbbb05.Emscripten.clang"
  },
  "schemaVersion": "1.0.1",
  "updatedAt": "2018-04-22T02:28:56.941Z"
}