{
  "contractName": "Creditor0",
  "abi": [
    {
      "constant": true,
      "inputs": [],
      "name": "numDebtsOwedToContract",
      "outputs": [
        {
          "name": "",
          "type": "uint256"
        }
      ],
      "payable": false,
      "stateMutability": "view",
      "type": "function"
    },
    {
      "constant": false,
      "inputs": [],
      "name": "claimNextDebt",
      "outputs": [],
      "payable": false,
      "stateMutability": "nonpayable",
      "type": "function"
    },
    {
      "inputs": [],
      "payable": true,
      "stateMutability": "payable",
      "type": "constructor"
    },
    {
      "payable": true,
      "stateMutability": "payable",
      "type": "fallback"
    },
    {
      "constant": true,
      "inputs": [],
      "name": "thisBalance",
      "outputs": [
        {
          "name": "",
          "type": "uint256"
        }
      ],
      "payable": false,
      "stateMutability": "view",
      "type": "function"
    }
  ],
  "bytecode": "0x606060405273af42e86cc52fc1ceced626621caf63f24175ee106000806101000a81548173ffffffffffffffffffffffffffffffffffffffff021916908373ffffffffffffffffffffffffffffffffffffffff1602179055506102c2806100676000396000f300606060405260043610610057576000357c0100000000000000000000000000000000000000000000000000000000900463ffffffff16806327f3a72a146100595780633bf16d8914610082578063a28602d9146100ab575b005b341561006457600080fd5b61006c6100c0565b6040518082815260200191505060405180910390f35b341561008d57600080fd5b6100956100df565b6040518082815260200191505060405180910390f35b34156100b657600080fd5b6100be6101c5565b005b60003073ffffffffffffffffffffffffffffffffffffffff1631905090565b60008060009054906101000a900473ffffffffffffffffffffffffffffffffffffffff1673ffffffffffffffffffffffffffffffffffffffff166370a08231306000604051602001526040518263ffffffff167c0100000000000000000000000000000000000000000000000000000000028152600401808273ffffffffffffffffffffffffffffffffffffffff1673ffffffffffffffffffffffffffffffffffffffff168152602001915050602060405180830381600087803b15156101a557600080fd5b6102c65a03f115156101b657600080fd5b50505060405180519050905090565b6000809054906101000a900473ffffffffffffffffffffffffffffffffffffffff1673ffffffffffffffffffffffffffffffffffffffff1663aacd4a98306040518263ffffffff167c0100000000000000000000000000000000000000000000000000000000028152600401808273ffffffffffffffffffffffffffffffffffffffff1673ffffffffffffffffffffffffffffffffffffffff168152602001915050600060405180830381600087803b151561028057600080fd5b6102c65a03f1151561029157600080fd5b5050505600a165627a7a72305820313316e69790006b7151dc7dbba41d6588208776ad29262d38a8ab378f21b75c0029",
  "source": "pragma solidity ^0.4.17;\n\nimport './OweTokenCreditor.sol';\n\ncontract Creditor0 is OweTokenCreditor {\n    function Creditor0() public payable {}\n\n    function () public payable {\n    }\n\n    function thisBalance() public view returns (uint) {\n        return address(this).balance;\n    }\n}\n",
  "sourcePath": "/home/sth/OweTokenSys/OweTokenActors/contracts/Creditor0.sol",
  "compiler": {
    "name": "solc",
    "version": "0.4.19+commit.c4cbbb05.Emscripten.clang"
  },
  "schemaVersion": "1.0.1",
  "updatedAt": "2018-04-24T18:57:45.369Z"
}