{
  "contractName": "Creditor",
  "abi": [
    {
      "constant": true,
      "inputs": [],
      "name": "numDebtsOwedToContract",
      "outputs": [
        {
          "name": "",
          "type": "uint256"
        }
      ],
      "payable": false,
      "stateMutability": "view",
      "type": "function"
    },
    {
      "constant": false,
      "inputs": [],
      "name": "claimNextDebt",
      "outputs": [],
      "payable": false,
      "stateMutability": "nonpayable",
      "type": "function"
    },
    {
      "inputs": [],
      "payable": true,
      "stateMutability": "payable",
      "type": "constructor"
    },
    {
      "payable": true,
      "stateMutability": "payable",
      "type": "fallback"
    },
    {
      "constant": false,
      "inputs": [
        {
          "name": "_acct",
          "type": "address"
        },
        {
          "name": "_amt",
          "type": "uint256"
        }
      ],
      "name": "sendEtherToAccount",
      "outputs": [],
      "payable": false,
      "stateMutability": "nonpayable",
      "type": "function"
    },
    {
      "constant": true,
      "inputs": [],
      "name": "thisBalance",
      "outputs": [
        {
          "name": "",
          "type": "uint256"
        }
      ],
      "payable": false,
      "stateMutability": "view",
      "type": "function"
    }
  ],
  "bytecode": "0x606060405273af42e86cc52fc1ceced626621caf63f24175ee106000806101000a81548173ffffffffffffffffffffffffffffffffffffffff021916908373ffffffffffffffffffffffffffffffffffffffff160217905550610470806100676000396000f300606060405260043610610062576000357c0100000000000000000000000000000000000000000000000000000000900463ffffffff16806327f3a72a146100645780633bf16d891461008d57806376a47256146100b6578063a28602d9146100f8575b005b341561006f57600080fd5b61007761010d565b6040518082815260200191505060405180910390f35b341561009857600080fd5b6100a061012c565b6040518082815260200191505060405180910390f35b34156100c157600080fd5b6100f6600480803573ffffffffffffffffffffffffffffffffffffffff16906020019091908035906020019091905050610212565b005b341561010357600080fd5b61010b6102b3565b005b60003073ffffffffffffffffffffffffffffffffffffffff1631905090565b60008060009054906101000a900473ffffffffffffffffffffffffffffffffffffffff1673ffffffffffffffffffffffffffffffffffffffff166370a08231306000604051602001526040518263ffffffff167c0100000000000000000000000000000000000000000000000000000000028152600401808273ffffffffffffffffffffffffffffffffffffffff1673ffffffffffffffffffffffffffffffffffffffff168152602001915050602060405180830381600087803b15156101f257600080fd5b6102c65a03f1151561020357600080fd5b50505060405180519050905090565b803073ffffffffffffffffffffffffffffffffffffffff163111151561023757600080fd5b8173ffffffffffffffffffffffffffffffffffffffff16631b9265b8826040518263ffffffff167c01000000000000000000000000000000000000000000000000000000000281526004016000604051808303818588803b151561029a57600080fd5b6125ee5a03f115156102ab57600080fd5b505050505050565b60008060009054906101000a900473ffffffffffffffffffffffffffffffffffffffff1673ffffffffffffffffffffffffffffffffffffffff16632f745c5930600080604051602001526040518363ffffffff167c0100000000000000000000000000000000000000000000000000000000028152600401808373ffffffffffffffffffffffffffffffffffffffff1673ffffffffffffffffffffffffffffffffffffffff16815260200182815260200192505050602060405180830381600087803b151561038157600080fd5b6102c65a03f1151561039257600080fd5b5050506040518051905090506000809054906101000a900473ffffffffffffffffffffffffffffffffffffffff1673ffffffffffffffffffffffffffffffffffffffff166349407a44826040518263ffffffff167c010000000000000000000000000000000000000000000000000000000002815260040180828152602001915050600060405180830381600087803b151561042d57600080fd5b6102c65a03f1151561043e57600080fd5b505050505600a165627a7a723058209737a527b88be3a2461b472aae854dbb5e37bf6c69470a39bb6d9f700b2147c40029",
  "source": "pragma solidity ^0.4.17;\n\nimport './OweTokenCreditor.sol';\nimport './Debtor.sol';\n\ncontract Creditor is OweTokenCreditor {\n    function Creditor() public payable {}\n\n    function sendEtherToAccount(address _acct, uint _amt) public {\n        require(address(this).balance > _amt);\n        Debtor(_acct).pay.value(_amt)();\n    }\n\n    function () public payable {\n    }\n\n    function thisBalance() public view returns (uint) {\n        return address(this).balance;\n    }\n}\n",
  "sourcePath": "/home/sth/OweTokenSys/OweTokenActors/contracts/Creditor.sol",
  "compiler": {
    "name": "solc",
    "version": "0.4.19+commit.c4cbbb05.Emscripten.clang"
  },
  "schemaVersion": "1.0.1",
  "updatedAt": "2018-04-22T02:58:16.184Z"
}