{
  "contractName": "Creditor1",
  "abi": [
    {
      "inputs": [],
      "payable": true,
      "stateMutability": "payable",
      "type": "constructor"
    },
    {
      "payable": true,
      "stateMutability": "payable",
      "type": "fallback"
    },
    {
      "constant": true,
      "inputs": [],
      "name": "thisBalance",
      "outputs": [
        {
          "name": "",
          "type": "uint256"
        }
      ],
      "payable": false,
      "stateMutability": "view",
      "type": "function"
    }
  ],
  "bytecode": "0x606060405260b2806100126000396000f300606060405260043610603f576000357c0100000000000000000000000000000000000000000000000000000000900463ffffffff16806327f3a72a146041575b005b3415604b57600080fd5b60516067565b6040518082815260200191505060405180910390f35b60003073ffffffffffffffffffffffffffffffffffffffff16319050905600a165627a7a72305820302c6893e11327a64c5ac47f57f10eca6546ef8253abca39f050b4673552f07e0029",
  "source": "pragma solidity ^0.4.17;\n\n////////////////////////////////////////////////////////////////////////////////\n// Example of a contract that does not inherit from OweTokenCreditor contract.\n// Made to illustrate the options available to already-created contracts that\n// wish to be interact with OweTokenSystem.\n////////////////////////////////////////////////////////////////////////////////\n// NOTE: This contract does NOT inherit from the OweTokenCreditor class.\n// To get the funds owed to it by some contract D that inherits from the\n// OweTokenDebtor contract, an account will have to interact with the OweTokenMain\n// contract by calling claimNextEther(<this contract's address>), which will\n// prompt contract D to transfer ether to <this contract's address> if this\n// contract has a balance with contract D.\n//\n// If Debtor D does not inherit the OweTokenDebtor class, then this contract will\n// have to intereact the \"old\" way by calling Debtor D's withdraw() method, or\n// some equivalent (per Debtor D's implementation).\n////////////////////////////////////////////////////////////////////////////////\ncontract Creditor1 {\n    function Creditor1() public payable {}\n\n    function () public payable {\n    }\n\n    function thisBalance() public view returns (uint) {\n        return address(this).balance;\n    }\n}\n",
  "sourcePath": "/home/sth/OweTokenSys/OweTokenActors/contracts/Creditor1.sol",
  "compiler": {
    "name": "solc",
    "version": "0.4.19+commit.c4cbbb05.Emscripten.clang"
  },
  "schemaVersion": "1.0.1",
  "updatedAt": "2018-04-24T18:57:45.369Z"
}