{
  "contractName": "OweTokenCreditor",
  "abi": [
    {
      "constant": true,
      "inputs": [],
      "name": "numDebtsOwedToContract",
      "outputs": [
        {
          "name": "",
          "type": "uint256"
        }
      ],
      "payable": false,
      "stateMutability": "view",
      "type": "function"
    },
    {
      "constant": false,
      "inputs": [],
      "name": "claimNextDebt",
      "outputs": [],
      "payable": false,
      "stateMutability": "nonpayable",
      "type": "function"
    }
  ],
  "bytecode": "0x606060405273af42e86cc52fc1ceced626621caf63f24175ee106000806101000a81548173ffffffffffffffffffffffffffffffffffffffff021916908373ffffffffffffffffffffffffffffffffffffffff160217905550341561006357600080fd5b610332806100726000396000f30060606040526004361061004c576000357c0100000000000000000000000000000000000000000000000000000000900463ffffffff1680633bf16d8914610051578063a28602d91461007a575b600080fd5b341561005c57600080fd5b61006461008f565b6040518082815260200191505060405180910390f35b341561008557600080fd5b61008d610175565b005b60008060009054906101000a900473ffffffffffffffffffffffffffffffffffffffff1673ffffffffffffffffffffffffffffffffffffffff166370a08231306000604051602001526040518263ffffffff167c0100000000000000000000000000000000000000000000000000000000028152600401808273ffffffffffffffffffffffffffffffffffffffff1673ffffffffffffffffffffffffffffffffffffffff168152602001915050602060405180830381600087803b151561015557600080fd5b6102c65a03f1151561016657600080fd5b50505060405180519050905090565b60008060009054906101000a900473ffffffffffffffffffffffffffffffffffffffff1673ffffffffffffffffffffffffffffffffffffffff16632f745c5930600080604051602001526040518363ffffffff167c0100000000000000000000000000000000000000000000000000000000028152600401808373ffffffffffffffffffffffffffffffffffffffff1673ffffffffffffffffffffffffffffffffffffffff16815260200182815260200192505050602060405180830381600087803b151561024357600080fd5b6102c65a03f1151561025457600080fd5b5050506040518051905090506000809054906101000a900473ffffffffffffffffffffffffffffffffffffffff1673ffffffffffffffffffffffffffffffffffffffff166349407a44826040518263ffffffff167c010000000000000000000000000000000000000000000000000000000002815260040180828152602001915050600060405180830381600087803b15156102ef57600080fd5b6102c65a03f1151561030057600080fd5b505050505600a165627a7a72305820237baed4e203e60badcfd2fb1fa364db2dbaf63a87e910ad62aa09e8fb4e7baa0029",
  "source": "pragma solidity ^0.4.17;\n\nimport '../../OweToken/contracts/OweToken.sol';\n\ncontract OweTokenCreditor {\n    OweToken private oweToken = OweToken(\n        0xAF42E86Cc52fC1CeCed626621CAf63f24175EE10\n    );\n\n    function numDebtsOwedToContract() public view returns (uint) {\n        return oweToken.balanceOf(this);\n    }\n\n    function claimNextDebt() public {\n        uint debtId = oweToken.tokenOfOwnerByIndex(this, 0);\n        oweToken.claimEther(debtId);\n    }\n}\n",
  "sourcePath": "/home/sth/OweTokenSys/OweTokenActors/contracts/OweTokenCreditor.sol",
  "compiler": {
    "name": "solc",
    "version": "0.4.19+commit.c4cbbb05.Emscripten.clang"
  },
  "schemaVersion": "1.0.1",
  "updatedAt": "2018-04-22T02:26:34.735Z"
}